:03000000020E7D70
:0C0E7D00787FE4F6D8FD758160020EC499
:0810F80057656C636F6D652103
:100FE700100A6628487A293D00000000000000002A
:100FF7000000101A52284F686D293D0000000000BC
:1010070000000000102A43287046293D0000000018
:10101700000000000000103A4C287548293D0000E8
:0B10270000000000000000000153006A
:100B88001210701210E91210337F011210CBAF57F8
:100B9800AE56AD55AC54120D37E55324FE604114E2
:100BA8006073240270E8AF57AE56AD55AC54E412EA
:100BB8000998A804A905AA06AB077F467E237DDC11
:100BC8007C4A1208FB7B007A80791578C3120807E3
:100BD8001209D68F518E508D4F8C4E120DDA80AE81
:100BE800AF57AE56AD55AC54E4120998A804A90500
:100BF800AA06AB077F9E7E357D667C491208FBE41A
:100C0800FBFAF9783F1208071209D68E4A8F4B1261
:100C18000F09020B96AF57AE56AD55AC54E4120906
:100C280098A804A905AA06AB077F237EE87D6B7CFC
:100C3800531208FBC004C005C006C007AF57AE5624
:100C4800AD55AC54E4120998A804A905AA06AB0747
:100C5800D007D006D005D0041208FBE4FBFAF978D7
:100C68003F1208071209D68E4C8F4D120F78020BCF
:010C780096E5
:03000B00020C796B
:100C7900C0E0C0F0C083C082C0D075D000C000C041
:100C890001C002C003C004C005C006C007E5532463
:100C9900FE601B14602C240270422092FD3092FDEC
:100CA900758C00758A002092FD3092FD8026209374
:100CB900FD3093FD758C00758A002093FD3093FDFE
:100CC90080122094FD3094FD758C00758A00209463
:100CD900FD3094FD858C08858A09C28CE508FE7C67
:100CE90000E42509FDEC3EFCE412099DA804A905D0
:100CF900AA06AB077F077E007D617C491208FBE4E9
:100D0900FBFAF9783F1208071209D68F578E568DCC
:100D1900558C54D007D006D005D004D003D002D0CA
:0E0D290001D000D0D0D082D083D0F0D0E03204
:0C10A1002552F8E6FF1210DA7F057E00F1
:1010AD00D3EF9400EE940040147D6E7C00ED1D7026
:0D10BD00011CED4C70F7EF1F70E61E80E384
:0110CA002203
:0F10CB00C2A58F801210A9D2A41210A9C2A4220C
:0F10DA00D2A58F801210A9D2A41210A9C2A422ED
:10107000C2A47F381210CB7F0C1210CB7F06121047
:10108000CB7F011210CB7F801210CBE4F552E552DA
:101090009010F8931210A50552E552C3940840EE43
:0110A000222D
:0F10E900758901E4F58CF58AD2AFD2A9D28C2299
:1010330020950E7F0A7E001210AD20952F75530167
:101043002220960E7F0A7E001210AD20961E755345
:10105300022220970E7F0A7E001210AD20970D7595
:0D1063005303223095063096032097F722A4
:080D37008F5B8E5A8D598C5818
:100D3F00E4F55C8F608E5F8D5E8C5DAF5BAE5AAD00
:100D4F0059AC58EC4D4E4F6015E47B0AFAF9F81286
:100D5F000AE88F5B8E5A8D598C58055C80DDE55CF7
:100D6F002405F552E552D394054039E47B0AFAF98C
:100D7F00F8AF60AE5FAD5EAC5D120AE8EB2430FFFA
:100D8F00740A2552F8A607AF60AE5FAD5EAC5DE4A6
:100D9F007B0AFAF9F8120AE88F608E5F8D5E8C5D20
:100DAF00155280C07F801210CBE4F552E55C24060B
:100DBF00FFE433FEC3E5529FEE6480F874809850D1
:0A0DCF0009740A1210A1055280E217
:010DD90022F7
:080DDA008F5B8E5A8D598C5875
:100DE200E4F55C8F608E5F8D5E8C5DAF5BAE5AAD5D
:100DF20059AC58EC4D4E4F6015E47B0AFAF9F812E3
:100E02000AE88F5B8E5A8D598C58055C80DDE55C53
:100E12002406F552E552D394064039E47B0AFAF9E6
:100E2200F8AF60AE5FAD5EAC5D120AE8EB2430FF56
:100E3200741A2552F8A607AF60AE5FAD5EAC5DE4F2
:100E42007B0AFAF9F8120AE88F608E5F8D5E8C5D7C
:100E5200155280C07FC01210CBE4F552E55C240726
:100E6200FFE433FEC3E5529FEE6480F8748098502D
:0A0E720009741A1210A1055280E263
:010E7C002253
:100F0900E4FB8E588F59EF4E600A7C007D0A120A65
:100F1900570B80F2EB2405F552E552D3940540298D
:100F2900AE58AF597C007D0A120A57ED2430FF7480
:100F39002A2552F8A607AE58AF597C007D0A120A35
:100F4900578E588F59155280D07FC01210CBE4F5B7
:100F590052EB2406FFE433FEC3E5529FEE6480F8AA
:0E0F69007480985009742A1210A1055280E37A
:010F77002257
:100F7800E4FB8E588F59EF4E600A7C007D0A120AF6
:100F8800570B80F2EB2405F552E552D3940540291E
:100F9800AE58AF597C007D0A120A57ED2430FF7411
:100FA8003A2552F8A607AE58AF597C007D0A120AB6
:100FB800578E588F59155280D07FC01210CBE4F548
:100FC80052EB2406FFE433FEC3E5529FEE6480F83B
:0E0FD8007480985009743A1210A1055280E3FB
:010FE60022E8
:10080000020A42E86480F8E933E83360110460F0DA
:10081000ED33EC337009E8FCE9FDEAFEEBFF22045E
:1008200060DED3EB9FEA9EE99DE8C2E78CF0C2F759
:1008300095F0400CE8CCF8E9CDF9EACEFAEBCFFB25
:10084000120A0D85D0F05804700320D5B3E8047067
:10085000075002B2D5020A4C92D5EC0460F7E4CC02
:10086000C0E0C398F8603B94186008400DD0E0FBEE
:10087000020A24E4FBFAC9FC8028E830E406E4C953
:10088000FBE4CAFCE830E305E4C9CACBFCE8540742
:100890006010F8C3E913F9EA13FAEB13FBEC13FC4D
:1008A000D8F130F52FC3E49CFCEF9BFFEE9AFEEDF0
:1008B00099FDD0E0FBEF4E4D4C701222DB03020A93
:1008C00049EC2CFCEF33FFEE33FEED33FDED30E76A
:1008D000EB020A24EF2BFFEE3AFEED39FDD0E0FBF0
:1008E00050130BBB0003020A4CED13FDEE13FEEF99
:0808F00013FFEC13FC020A24C3
:1008F800020A4CEC5D046005E859047003020A42E0
:10090800120A0D580460F6EC4860F2EC7004FDFE23
:10091800FF22C860DB2481C85009C39860025006D2
:10092800020A499850CAF582E9294B4A7005AB82F8
:10093800020A3875F0007C1A7880C3EF9BEE9AEDB6
:1009480099400DC3EF9BFFEE9AFEED99FDE842F04A
:10095800DC23ACF0D0E0FFD0E0FED0E0FDAB82209D
:10096800E7101BEB60BAEC2CFCEF33FFEE33FEED27
:1009780033FD020A24E803F830E705C0F075F000FB
:10098800EF2FFFEE33FEED33FD40B830E7C280AA0B
:1009980075F020800E75F010800575F0087D007EDA
:1009A800007F003392D530D503120B7AEC33401018
:1009B800EF33FFEE33FEED33FDEC33FCD5F0ED22E3
:0E09C800E5F0247EA2D513CC92E7CDCEFF221F
:1009D600EDD2E7CD33EC3392D524814006E4FFFE19
:1009E600FDFC22FCE4CFCECDCC24E0501174FF8078
:1009F600EDC3CC13CCCD13CDCE13CECF13CF047015
:070A0600F030D5DE020B7A8F
:100A0D00E9D2E7C933E833F892D5EDD2E7CD33EC2F
:070A1D0033FC5002B2D522A8
:100A2400EC30E7100FBF000C0EBE00080DBD000433
:100A34000BEB6014A2D5EB13FCED92E7FD2274FFDF
:100A4400FCFDFEFF22E480F8A2D574FF13FC7D8038
:030A5400E480EF4C
:100E8900020B88E493A3F8E493A34003F68001F2EC
:100E990008DFF48029E493A3F85407240CC8C3336A
:100EA900C4540F4420C8834004F456800146F6DF39
:100EB900E4800B0102040810204080900FE7E47ED3
:100EC900019360BCA3FF543F30E509541FFEE4932E
:100ED900A360010ECF54C025E060A840B8E493A3F5
:100EE900FAE493A3F8E493A3C8C582C8CAC583CA20
:100EF900F0A3C8C582C8CAC583CADFE9DEE780BED8
:0110320000BD
:100A5700BC000BBE0029EF8DF084FFADF022E4CC83
:100A6700F875F008EF2FFFEE33FEEC33FCEE9DEC4C
:100A7700984005FCEE9DFE0FD5F0E9E4CEFD22ED92
:100A8700F8F5F0EE8420D21CFEADF075F008EF2FDC
:100A9700FFED33FD4007985006D5F0F222C398FDCD
:050AA7000FD5F0EA226A
:100AAC0075F008758200EF2FFFEE33FECD33CDCC01
:100ABC0033CCC58233C5829BED9AEC99E582984084
:100ACC000CF582EE9BFEED9AFDEC99FC0FD5F0D661
:100ADC00E4CEFBE4CDFAE4CCF9A88222B800C1B98B
:100AEC000059BA002DEC8BF084CFCECDFCE5F0CBC9
:100AFC00F97818EF2FFFEE33FEED33FDEC33FCEB02
:100B0C0033FB10D703994004EB99FB0FD8E5E4F9BC
:100B1C00FA227818EF2FFFEE33FEED33FDEC33FCA9
:100B2C00C933C910D7059BE99A4007EC9BFCE99A9D
:100B3C00F90FD8E0E4C9FAE4CCFB2275F010EF2FE2
:100B4C00FFEE33FEED33FDCC33CCC833C810D707E2
:100B5C009BEC9AE899400AED9BFDEC9AFCE899F81D
:0E0B6C000FD5F0DAE4CDFBE4CCFAE4C8F922B0
:0E0B7A00C3E49FFFE49EFEE49DFDE49CFC228C
:00000001FF
